:100000000C9462000C947F000C947F000C947F0091
:100010000C947F000C947F000C947F000C9475016D
:100020000C947F000C947F000C947F000C947F0054
:100030000C947F000C947F000C947F000C947F0044
:100040000C942B010C947F000C947F000C947F0087
:100050000C947F000C947F000C947F000C947F0024
:100060000C947F000C947F00000000002300260009
:10007000290000000008000201000003040700003E
:100080000000000000000200000000250028002BF6
:100090000000000000240027002A000404040404D7
:1000A0000404040202020202020303030303030125
:1000B00002040810204080010204081020010204FC
:1000C0000810200011241FBECFEFD8E0DEBFCDBF47
:1000D00011E0A0E0B1E0E8E0F9E002C005900D9287
:1000E000A834B107D9F721E0A8E4B1E001C01D921E
:1000F000A236B207E1F70E94D1010C9482040C945D
:100100000000833081F028F4813099F08230A9F02A
:1001100008958730A9F08830C9F08430B1F4809117
:1001200080008F7D03C0809180008F778093800056
:10013000089584B58F7784BD089584B58F7DFBCFF6
:100140008091B0008F778093B00008958091B000C7
:100150008F7DF9CFCF93DF9390E0FC01E155FF4F06
:10016000249185569F4FFC0184918823D1F090E023
:10017000880F991FFC01EF56FF4FA591B491FC0128
:10018000E957FF4FC591D491623071F49FB7F8944D
:100190003C91822F809583238C93E8812E2B28839A
:1001A0009FBFDF91CF9108958FB7F894EC912E2BDC
:1001B0002C938FBFF6CFCF93DF93909100018913DB
:1001C0000BC0E6E8F0E0E4919FEF90930001E1308E
:1001D00059F138F1E23071F1282F30E0F901EE5891
:1001E000FF4F8491F901E155FF4FD491F901E55694
:1001F000FF4FC491CC2391F081110E948100EC2F1C
:10020000F0E0EE0FFF1FE957FF4FA591B4918FB7B4
:10021000F894EC91D095DE23DC938FBFDF91CF91E2
:10022000089510926E00D8CF90916F009D7F9093AB
:100230006F00D2CF909170009D7F9093700091E0FD
:100240009093B0009091B100987F94609093B1002A
:100250001092B300C1CF1F920F920FB60F921124CC
:100260002F933F938F939F93AF93BF9380915E01A2
:1002700090915F01A0916001B091610130915D01A9
:1002800023E0230F2D3758F50196A11DB11D2093B2
:100290005D0180935E0190935F01A0936001B09334
:1002A00061018091590190915A01A0915B01B09137
:1002B0005C010196A11DB11D8093590190935A01D3
:1002C000A0935B01B0935C01BF91AF919F918F911F
:1002D0003F912F910F900FBE0F901F90189526E819
:1002E000230F0296A11DB11DD2CF1F920F920FB600
:1002F0000F9211242F933F934F935F936F937F93AC
:100300008F939F93AF93BF93EF93FF9380914D0192
:1003100090914E01A0914F01B0915001892B8A2BF1
:100320008B2BD1F190914801E0914901F0914A0164
:1003300080818927808380914D0190914E01A09109
:100340004F01B0915001181619061A061B069CF4AD
:1003500080914D0190914E01A0914F01B0915001BB
:100360000197A109B10980934D0190934E01A0938B
:100370004F01B0935001FF91EF91BF91AF919F91C9
:100380008F917F916F915F914F913F912F910F903E
:100390000FBE0F901F901895809100010E94DB0006
:1003A000EACF789484B5826084BD84B5816084BDD1
:1003B00085B5826085BD85B5816085BD80916E0003
:1003C000816080936E001092810080918100826034
:1003D0008093810080918100816080938100809171
:1003E00080008160809380008091B1008460809360
:1003F000B1008091B00081608093B00080917A005C
:10040000846080937A0080917A00826080937A0081
:1004100080917A00816080937A0080917A00806870
:1004200080937A001092C10007E411E0C5E2D1E0A8
:100430008881229662E00E94AA000C171D07C1F76E
:1004400061E083E00E94AA0088248A94982C5401D9
:1004500072EB272E70E0372EC5E2D1E010E000E00D
:10046000299139913327F901EE58FF4F8491F90111
:10047000E155FF4FE490F901E556FF4FF490FF205E
:1004800021F181110E948100EF2DF0E0EE0FFF1F9E
:10049000E859FF4FA591B491EC91EE22B1F00F5FB6
:1004A0001F4F01311105E1F6809101019091020188
:1004B000019609F4C9C083E00E94DB008FEF9FEF33
:1004C0009093020180930101BFC08091010190913E
:1004D00002018017910709F4B7C0F801EE0FFF1F62
:1004E000ED5FFE4FC080D18080910001833009F024
:1004F000B3C0E6E8F0E0C491C7FDA2C061E083E0CC
:100500000E94AA00CC2319F0C23009F06DC1F12C71
:10051000E12C60E072E18AE790E0A70196010E9479
:10052000410429013A01DA01C9010197A109B10980
:100530008F3F9105A105B10509F00CF43CC160E4C1
:1005400072E48FE090E0A70196010E9441042150DF
:10055000310941095109C23009F0EEC082E02F3F54
:1005600031054105510509F00CF45BC060E970EDFF
:1005700083E090E0A70196010E94410421503109D7
:100580004109510983E02F3F31054105510509F02B
:100590000CF447C068E478EE81E090E0A701960192
:1005A0000E944104215031094109510984E02F3F43
:1005B000310541055105A9F1A4F164E274EF80E031
:1005C00090E0A70196010E944104215031094109A0
:1005D000510985E02F3F31054105510511F108F121
:1005E00062E17AE780E090E0A70196010E94410471
:1005F000215031094109510986E02F3F310541055C
:10060000510579F070F08AE0759467945794479497
:100610008A95D1F7A301920121503109410951096D
:1006200087E09091B100987F892B8093B100C13011
:1006300009F405C1C23009F414C1CC2309F4C3C0C4
:100640001093020100930101E0E0F0E0EF2B09F4C8
:1006500003CF0E940000FCCE8F3F91F783E0809390
:100660000001E6E8F0E0C491CF3F51F3C13021F141
:1006700050F0C23009F43EC0C7FDE2CF61E083E034
:100680000E94AA0041CF14BC15BC84B5826084BD11
:1006900085B5816085BDEEE9F0E08491E82FF0E05A
:1006A000EE0FFF1FE957FF4F85919491F10184915F
:1006B00080934C01C0E022CF109280001092810004
:1006C00080918100886080938100809181008160A9
:1006D00080938100EEE9F0E08491E82FF0E0EE0FE6
:1006E000FF1FE957FF4F85919491F1018491809309
:1006F0004B0104CF1092B0001092B1008091B00075
:1007000082608093B0008091B10081608093B100DD
:10071000EEE9F0E08491E82FF0E0EE0FFF1FE957DB
:10072000FF4F8591949190934A0180934901F10183
:10073000849180934801E2CE2F3F31054105510558
:1007400009F00CF44FC068E478EE81E090E0A70176
:1007500096010E944104215031094109510984E068
:10076000C11138CF83E02F3F31054105510539F1E3
:1007700034F162E17AE780E090E0A70196010E94FF
:100780004104215031094109510984E02F3F3105CD
:1007900041055105A1F098F09AE07594679457943B
:1007A00047949A95D1F7A30192012150310941094B
:1007B000510985E004C09C0181E0C11132CF95B59B
:1007C000987F892B85BD27BD809255019092560157
:1007D000A0925701B092580180916E008260809380
:1007E0006E002ECF82E0E9CFF12CE12C60E072E1C7
:1007F0008AE790E0A70196010E9441042150310947
:100800004109510991E021153105F1E04F075105EA
:100810006CF068E478EE81E090E0A70196010E9418
:100820004104215031094109510993E0C13009F0D7
:10083000FECE80918100887F892B80938100309348
:100840008900209388008092510190925201A092D9
:100850005301B092540180916F00826080936F00C9
:10086000EFCE2093B30080924D0190924E01A09262
:100870004F01B092500180917000826080937000AF
:10088000DFCE052E97FB1EF400940E94580457FDFE
:1008900007D00E94600407FC03D04EF40C94580467
:1008A00050954095309521953F4F4F4F5F4F08959C
:1008B00090958095709561957F4F8F4F9F4F0895CC
:1008C000A1E21A2EAA1BBB1BFD010DC0AA1FBB1F54
:1008D000EE1FFF1FA217B307E407F50720F0A21BC6
:1008E000B30BE40BF50B661F771F881F991F1A9433
:1008F00069F760957095809590959B01AC01BD015D
:08090000CF010895F894FFCF28
:10090800FFFFFF06011501260137014A015D01724B
:100918000188019F01B801D201EE010B022A024BA6
:10092800026E029302020004000500060007000898
:100938000009000A000B000C000D000E000F00104B
:08094800001100120013000071
:00000001FF
