:100000000C9462000C947F000C947F000C947F0091
:100010000C947F000C947F000C947F000C949A0148
:100020000C947F000C947F000C947F000C947F0054
:100030000C947F000C947F000C947F000C947F0044
:100040000C9450010C947F000C947F000C947F0062
:100050000C947F000C947F000C947F000C947F0024
:100060000C947F000C947F00000000002300260009
:10007000290000000008000201000003040700003E
:100080000000000000000200000000250028002BF6
:100090000000000000240027002A000404040404D7
:1000A0000404040202020202020303030303030125
:1000B00002040810204080010204081020010204FC
:1000C0000810200011241FBECFEFD8E0DEBFCDBF47
:1000D00011E0A0E0B1E0E6EAF9E002C005900D927F
:1000E000A634B107D9F721E0A6E4B1E001C01D9222
:1000F000A036B207E1F70E94F6010C94D1040C94EB
:100100000000833081F028F4813099F08230A9F02A
:1001100008958730A9F08830C9F08430B1F4809117
:1001200080008F7D03C0809180008F778093800056
:10013000089584B58F7784BD089584B58F7DFBCFF6
:100140008091B0008F778093B00008958091B000C7
:100150008F7DF9CFCF93DF9390E0FC01E155FF4F06
:10016000249185569F4FFC0184918823D1F090E023
:10017000880F991FFC01EF56FF4FA591B491FC0128
:10018000E957FF4FC591D491623071F49FB7F8944D
:100190003C91822F809583238C93E8812E2B28839A
:1001A0009FBFDF91CF9108958FB7F894EC912E2BDC
:1001B0002C938FBFF6CF3FB7F89480915C0190915C
:1001C0005D01A0915E01B0915F0126B5A89B05C0BD
:1001D0002F3F19F00196A11DB11D3FBFBA2FA92FC6
:1001E000982F8827BC01CD01620F711D811D911DC3
:1001F00042E0660F771F881F991F4A95D1F708952F
:10020000CF93DF939091000189130BC0E6E8F0E0F3
:10021000E4919FEF90930001E13059F138F1E23021
:1002200071F1282F30E0F901EE58FF4F8491F90168
:10023000E155FF4FD491F901E556FF4FC491CC230E
:1002400091F081110E948100EC2FF0E0EE0FFF1F72
:10025000E957FF4FA591B4918FB7F894EC91D095E1
:10026000DE23DC938FBFDF91CF91089510926E0053
:10027000D8CF90916F009D7F90936F00D2CF9091D7
:1002800070009D7F9093700091E09093B0009091EA
:10029000B100987F94609093B1001092B300C1CFE9
:1002A0001F920F920FB60F9211242F933F938F93AB
:1002B0009F93AF93BF938091580190915901A09162
:1002C0005A01B0915B013091570123E0230F2D3784
:1002D00058F50196A11DB11D209357018093580137
:1002E00090935901A0935A01B0935B0180915C01F6
:1002F00090915D01A0915E01B0915F010196A11DF9
:10030000B11D80935C0190935D01A0935E01B09359
:100310005F01BF91AF919F918F913F912F910F906E
:100320000FBE0F901F90189526E8230F0296A11D6F
:10033000B11DD2CF1F920F920FB60F9211242F939F
:100340003F934F935F936F937F938F939F93AF935D
:10035000BF93EF93FF9380914B0190914C01A0913B
:100360004D01B0914E01892B8A2B8B2BD1F19091AD
:100370004601E0914701F0914801808189278083FF
:1003800080914B0190914C01A0914D01B0914E0193
:10039000181619061A061B069CF480914B019091C1
:1003A0004C01A0914D01B0914E010197A109B109F5
:1003B00080934B0190934C01A0934D01B0934E015B
:1003C000FF91EF91BF91AF919F918F917F916F912D
:1003D0005F914F913F912F910F900FBE0F901F9003
:1003E0001895809100010E940001EACFCF93DF931E
:1003F00000D000D0CDB7DEB7789484B5826084BDDC
:1004000084B5816084BD85B5826085BD85B5816018
:1004100085BD80916E00816080936E001092810096
:100420008091810082608093810080918100816051
:100430008093810080918000816080938000809112
:10044000B10084608093B1008091B000816080939E
:10045000B00080917A00846080937A0080917A0065
:10046000826080937A0080917A00816080937A0024
:1004700080917A00806880937A001092C10003E234
:1004800011E0F80180810E5F1F4F62E00E94AA0018
:1004900025E431E020173107A1F761E083E00E94F5
:1004A000AA0088248A94982C540171E0272E71E0C8
:1004B000372E83E291E09A838983E981FA81219141
:1004C0003191FA83E9833327F901EE58FF4F849184
:1004D000F901E155FF4FF49025563F4FF901F49192
:1004E000FB83F11125C0F101C080D1808091000112
:1004F000833009F43DC08F3F09F0E6C083E080936C
:100500000001E6E8F0E0F491FB83FF3F09F4DCC072
:10051000F13009F41BC108F4FFC0F23009F435C111
:100520009B8197FDD1C061E083E00E94AA002DC0AD
:1005300081110E9481002B81E22FF0E0EE0FFF1F5E
:10054000E859FF4FA591B491EC91FE2261F232E09F
:10055000230E311C89819A810817190709F0ADCF44
:1005600080E090E0892B09F4A0CF0E9400009DCF8D
:10057000E6E8F0E0F491FB83F7FDA6C061E083E0DC
:100580000E94AA00FB81FF2321F02B81223009F079
:1005900079C1F12CE12C60E072E18AE790E0A701DB
:1005A00096010E94900429013A01DA01C9010197DC
:1005B000A109B1098F3F9105A105B10509F00CF41E
:1005C00047C160E472E48FE090E0A70196010E94C9
:1005D000900421503109410951098B81823009F081
:1005E000F7C082E02F3F31054105510509F00CF4B9
:1005F0005BC060E970ED83E090E0A70196010E9486
:100600009004215031094109510983E02F3F310500
:100610004105510509F00CF447C068E478EE81E02B
:1006200090E0A70196010E949004215031094109F0
:10063000510984E02F3F310541055105A9F1A4F18D
:1006400064E274EF80E090E0A70196010E949004BC
:10065000215031094109510985E02F3F31054105FC
:10066000510511F108F162E17AE780E090E0A7011D
:1006700096010E949004215031094109510986E0F8
:100680002F3F31054105510579F070F09AE07594DE
:100690006794579447949A95D1F7A30192012150FA
:1006A00031094109510987E09091B100987F892B68
:1006B0008093B1009B81913009F410C1923009F40C
:1006C0001FC1992309F4CDC00E94DB002B013C011E
:1006D00028ECC22ED12CE12CF12C0E94DB006419F5
:1006E000750986099709683E734081059105A8F34D
:1006F000E1E0CE1AD108E108F108F8EE4F0EF3E080
:100700005F1E611C711CC114D104E104F10429F7BE
:1007100083E00E9400011BCF14BC15BC84B582602D
:1007200084BD85B5816085BDEEE9F0E08491E82F58
:10073000F0E0EE0FFF1FE957FF4F85919491E2EB38
:10074000F0E0849180934A011B8218CF10928000C0
:100750001092810080918100886080938100809157
:100760008100816080938100EEE9F0E08491E82FC0
:10077000F0E0EE0FFF1FE957FF4F85919491E2EBF8
:10078000F0E0849180934901F9CE1092B00010926C
:10079000B1008091B00082608093B0008091B10080
:1007A00081608093B100EEE9F0E08491E82FF0E001
:1007B000EE0FFF1FE957FF4F8591949190934801E9
:1007C00080934701E2EBF0E0849180934601D6CE1E
:1007D0002F3F31054105510509F00CF451C068E483
:1007E00078EE81E090E0A70196010E9490042150EC
:1007F0003109410951099B8184E091112ECF83E099
:100800002F3F31054105510541F13CF162E17AE7A5
:1008100080E090E0A70196010E94900421503109E8
:100820004109510984E02F3F310541055105A9F0E7
:10083000A0F08AE075946794579447948A95D1F70D
:10084000A3019201215031094109510985E005C0F8
:100850009C0181E0EB81E11127CF95B5987F892B31
:1008600085BD27BD8092530190925401A0925501FD
:10087000B092560180916E00826080936E0024CF0A
:1008800082E0E8CFF12CE12C60E072E18AE790E0B1
:10089000A70196010E949004215031094109510994
:1008A00091E021153105F1E04F0751056CF068E446
:1008B00078EE81E090E0A70196010E94900421501B
:1008C00031094109510993E08B81813009F0F2CE61
:1008D00080918100887F892B8093810030938900EB
:1008E0002093880080924F0190925001A092510174
:1008F000B092520180916F00826080936F00E4CECD
:100900002093B30080924B0190924C01A0924D0134
:10091000B0924E0180917000826080937000D4CEBE
:10092000052E97FB1EF400940E94A70457FD07D0E4
:100930000E94AF0407FC03D04EF40C94A70450951A
:100940004095309521953F4F4F4F5F4F08959095BB
:100950008095709561957F4F8F4F9F4F0895A1E2CD
:100960001A2EAA1BBB1BFD010DC0AA1FBB1FEE1F29
:10097000FF1FA217B307E407F50720F0A21BB30B74
:10098000E40BF50B661F771F881F991F1A9469F7F0
:1009900060957095809590959B01AC01BD01CF014C
:0609A0000895F894FFCF5A
:1009A600FF06011501260137014A015D0172018822
:1009B600019F01B801D201EE010B022A024B026E21
:1009C6000293020200040005000600070008000961
:1009D600000A000B000C000D000E000F00100011A5
:0609E600001200130000E6
:00000001FF
